{
  "_format": "hh-sol-artifact-1",
  "contractName": "Token",
  "sourceName": "contracts/Token.sol",
  "abi": [
    {
      "inputs": [
        {
          "internalType": "string",
          "name": "_tokenName",
          "type": "string"
        },
        {
          "internalType": "string",
          "name": "_tokenSymbol",
          "type": "string"
        },
        {
          "internalType": "uint256",
          "name": "_initialSupply",
          "type": "uint256"
        },
        {
          "internalType": "uint8",
          "name": "_decimal",
          "type": "uint8"
        }
      ],
      "stateMutability": "nonpayable",
      "type": "constructor"
    },
    {
      "anonymous": false,
      "inputs": [
        {
          "indexed": true,
          "internalType": "address",
          "name": "owner",
          "type": "address"
        },
        {
          "indexed": true,
          "internalType": "address",
          "name": "spender",
          "type": "address"
        },
        {
          "indexed": false,
          "internalType": "uint256",
          "name": "value",
          "type": "uint256"
        }
      ],
      "name": "Approval",
      "type": "event"
    },
    {
      "anonymous": false,
      "inputs": [
        {
          "indexed": true,
          "internalType": "address",
          "name": "previousOwner",
          "type": "address"
        },
        {
          "indexed": true,
          "internalType": "address",
          "name": "newOwner",
          "type": "address"
        }
      ],
      "name": "OwnershipTransferred",
      "type": "event"
    },
    {
      "anonymous": false,
      "inputs": [
        {
          "indexed": false,
          "internalType": "address",
          "name": "account",
          "type": "address"
        }
      ],
      "name": "Paused",
      "type": "event"
    },
    {
      "anonymous": false,
      "inputs": [
        {
          "indexed": true,
          "internalType": "address",
          "name": "from",
          "type": "address"
        },
        {
          "indexed": true,
          "internalType": "address",
          "name": "to",
          "type": "address"
        },
        {
          "indexed": false,
          "internalType": "uint256",
          "name": "value",
          "type": "uint256"
        }
      ],
      "name": "Transfer",
      "type": "event"
    },
    {
      "anonymous": false,
      "inputs": [
        {
          "indexed": false,
          "internalType": "address",
          "name": "account",
          "type": "address"
        }
      ],
      "name": "Unpaused",
      "type": "event"
    },
    {
      "inputs": [
        {
          "internalType": "address",
          "name": "owner",
          "type": "address"
        },
        {
          "internalType": "address",
          "name": "spender",
          "type": "address"
        }
      ],
      "name": "allowance",
      "outputs": [
        {
          "internalType": "uint256",
          "name": "",
          "type": "uint256"
        }
      ],
      "stateMutability": "view",
      "type": "function"
    },
    {
      "inputs": [
        {
          "internalType": "address",
          "name": "spender",
          "type": "address"
        },
        {
          "internalType": "uint256",
          "name": "amount",
          "type": "uint256"
        }
      ],
      "name": "approve",
      "outputs": [
        {
          "internalType": "bool",
          "name": "",
          "type": "bool"
        }
      ],
      "stateMutability": "nonpayable",
      "type": "function"
    },
    {
      "inputs": [
        {
          "internalType": "address",
          "name": "account",
          "type": "address"
        }
      ],
      "name": "balanceOf",
      "outputs": [
        {
          "internalType": "uint256",
          "name": "",
          "type": "uint256"
        }
      ],
      "stateMutability": "view",
      "type": "function"
    },
    {
      "inputs": [
        {
          "internalType": "uint256",
          "name": "amount",
          "type": "uint256"
        }
      ],
      "name": "burn",
      "outputs": [],
      "stateMutability": "nonpayable",
      "type": "function"
    },
    {
      "inputs": [
        {
          "internalType": "address",
          "name": "account",
          "type": "address"
        },
        {
          "internalType": "uint256",
          "name": "amount",
          "type": "uint256"
        }
      ],
      "name": "burnFrom",
      "outputs": [],
      "stateMutability": "nonpayable",
      "type": "function"
    },
    {
      "inputs": [],
      "name": "decimals",
      "outputs": [
        {
          "internalType": "uint8",
          "name": "",
          "type": "uint8"
        }
      ],
      "stateMutability": "view",
      "type": "function"
    },
    {
      "inputs": [
        {
          "internalType": "address",
          "name": "spender",
          "type": "address"
        },
        {
          "internalType": "uint256",
          "name": "subtractedValue",
          "type": "uint256"
        }
      ],
      "name": "decreaseAllowance",
      "outputs": [
        {
          "internalType": "bool",
          "name": "",
          "type": "bool"
        }
      ],
      "stateMutability": "nonpayable",
      "type": "function"
    },
    {
      "inputs": [
        {
          "internalType": "address",
          "name": "spender",
          "type": "address"
        },
        {
          "internalType": "uint256",
          "name": "addedValue",
          "type": "uint256"
        }
      ],
      "name": "increaseAllowance",
      "outputs": [
        {
          "internalType": "bool",
          "name": "",
          "type": "bool"
        }
      ],
      "stateMutability": "nonpayable",
      "type": "function"
    },
    {
      "inputs": [
        {
          "internalType": "uint256",
          "name": "_amount",
          "type": "uint256"
        }
      ],
      "name": "mint",
      "outputs": [],
      "stateMutability": "nonpayable",
      "type": "function"
    },
    {
      "inputs": [],
      "name": "name",
      "outputs": [
        {
          "internalType": "string",
          "name": "",
          "type": "string"
        }
      ],
      "stateMutability": "view",
      "type": "function"
    },
    {
      "inputs": [],
      "name": "owner",
      "outputs": [
        {
          "internalType": "address",
          "name": "",
          "type": "address"
        }
      ],
      "stateMutability": "view",
      "type": "function"
    },
    {
      "inputs": [],
      "name": "pause",
      "outputs": [],
      "stateMutability": "nonpayable",
      "type": "function"
    },
    {
      "inputs": [],
      "name": "paused",
      "outputs": [
        {
          "internalType": "bool",
          "name": "",
          "type": "bool"
        }
      ],
      "stateMutability": "view",
      "type": "function"
    },
    {
      "inputs": [],
      "name": "renounceOwnership",
      "outputs": [],
      "stateMutability": "nonpayable",
      "type": "function"
    },
    {
      "inputs": [],
      "name": "symbol",
      "outputs": [
        {
          "internalType": "string",
          "name": "",
          "type": "string"
        }
      ],
      "stateMutability": "view",
      "type": "function"
    },
    {
      "inputs": [],
      "name": "totalSupply",
      "outputs": [
        {
          "internalType": "uint256",
          "name": "",
          "type": "uint256"
        }
      ],
      "stateMutability": "view",
      "type": "function"
    },
    {
      "inputs": [
        {
          "internalType": "address",
          "name": "to",
          "type": "address"
        },
        {
          "internalType": "uint256",
          "name": "amount",
          "type": "uint256"
        }
      ],
      "name": "transfer",
      "outputs": [
        {
          "internalType": "bool",
          "name": "",
          "type": "bool"
        }
      ],
      "stateMutability": "nonpayable",
      "type": "function"
    },
    {
      "inputs": [
        {
          "internalType": "address",
          "name": "from",
          "type": "address"
        },
        {
          "internalType": "address",
          "name": "to",
          "type": "address"
        },
        {
          "internalType": "uint256",
          "name": "amount",
          "type": "uint256"
        }
      ],
      "name": "transferFrom",
      "outputs": [
        {
          "internalType": "bool",
          "name": "",
          "type": "bool"
        }
      ],
      "stateMutability": "nonpayable",
      "type": "function"
    },
    {
      "inputs": [
        {
          "internalType": "address",
          "name": "newOwner",
          "type": "address"
        }
      ],
      "name": "transferOwnership",
      "outputs": [],
      "stateMutability": "nonpayable",
      "type": "function"
    },
    {
      "inputs": [],
      "name": "unpause",
      "outputs": [],
      "stateMutability": "nonpayable",
      "type": "function"
    }
  ],
  "bytecode": "0x604060808152346200045a576200152d803803806200001e816200045f565b9283398101906080818303126200045a5780516001600160401b0392908381116200045a57816200005191840162000485565b9260209182840151908282116200045a576200006f91850162000485565b906060868501519401519460ff861686036200045a578051918083116200035a5760038054936001938486811c961680156200044f575b8887101462000439578190601f96878111620003e3575b5088908783116001146200037c5760009262000370575b505060001982841b1c191690841b1781555b84519182116200035a5760049485548481811c911680156200034f575b888210146200033a57858111620002ef575b508690858411600114620002845793839491849260009562000278575b50501b92600019911b1c19161782555b60058054336001600160a01b031982168117909255875192916001600160a01b0382167f8be0079c531659141344cd1fd0a4f28419497f9722a3daafe3b4186f6b6457e0600086a36001600160a81b0319163360ff60a01b19811691909117600555156200023b5750506002549083198211620002265750600091837fddf252ad1be2c89b69c2b068fc378daa952ba7f163c4a11628f55a4df523b3ef920160025533835282815285832084815401905585519384523393a36005805460ff60a81b191660a89290921b60ff60a81b16919091179055516110249081620005098239f35b601190634e487b7160e01b6000525260246000fd5b8360649362461bcd60e51b845283015260248201527f45524332303a206d696e7420746f20746865207a65726f2061646472657373006044820152fd5b01519350388062000132565b9190601f198416928760005284896000209460005b8b89838310620002d75750505010620002bc575b50505050811b01825562000142565b01519060f884600019921b161c1916905538808080620002ad565b86860151895590970196948501948893500162000299565b86600052876000208680860160051c8201928a871062000330575b0160051c019085905b8281106200032357505062000115565b6000815501859062000313565b925081926200030a565b602287634e487b7160e01b6000525260246000fd5b90607f169062000103565b634e487b7160e01b600052604160045260246000fd5b015190503880620000d4565b90869350601f19831691856000528a6000209260005b8c828210620003cc5750508411620003b3575b505050811b018155620000e6565b015160001983861b60f8161c19169055388080620003a5565b8385015186558a9790950194938401930162000392565b90915083600052886000208780850160051c8201928b86106200042f575b918891869594930160051c01915b8281106200041f575050620000bd565b600081558594508891016200040f565b9250819262000401565b634e487b7160e01b600052602260045260246000fd5b95607f1695620000a6565b600080fd5b6040519190601f01601f191682016001600160401b038111838210176200035a57604052565b81601f820112156200045a578051906001600160401b0382116200035a57602090620004ba601f8401601f191683016200045f565b938385528284830101116200045a5782906000905b83838310620004ef57505011620004e557505090565b6000918301015290565b81935082819392010151828288010152018391620004cf56fe6080604081815260048036101561001557600080fd5b600092833560e01c90816306fdde03146108f857508063095ea7b3146108c457806318160ddd146108a557806323b872dd1461084d578063313ce5671461082857806339509351146107d85780633f4ba83a1461072d57806342966c68146106f75780635c975abb146106d057806370a0823114610698578063715018a61461064a57806379cc6790146105f75780638456cb59146105855780638da5cb5b1461055c57806395d89b4114610456578063a0712d6814610335578063a457c2d714610282578063a9059cbb1461020f578063dd62ed3e146101bb5763f2fde38b146100ff57600080fd5b346101b75760203660031901126101b7576001600160a01b03813581811692908390036101b35761012e610a26565b82156101615750600580546001600160a01b03198116841790915592519216600080516020610faf8339815191528484a3f35b608490602085519162461bcd60e51b8352820152602660248201527f4f776e61626c653a206e6577206f776e657220697320746865207a65726f206160448201526564647265737360d01b6064820152fd5b8480fd5b8280fd5b50346101b757816003193601126101b7576001600160a01b0390358181169081900361020b5760243591821680920361020b57928291602094825260018552828220908252845220549051908152f35b8380fd5b50346101b757816003193601126101b757356001600160a01b0381169081810361020b5760209361024d8492610243610be9565b6024359033610e4f565b60ff60055460c81c16610265575b5050505160018152f35b61027a92815280855220546006541015610dbd565b38818161025b565b5082346103325782600319360112610332578135916001600160a01b038316918284036103325784906024359333825260016020528282209082526020522054908282106102e1576020856102da8585038733610aa0565b5160018152f35b608490602086519162461bcd60e51b8352820152602560248201527f45524332303a2064656372656173656420616c6c6f77616e63652062656c6f77604482015264207a65726f60d81b6064820152fd5b80fd5b50346101b7576020908160031936011261020b57803590610354610a26565b60ff60055460b81c16156104185761036a610be9565b33156103d5575090816103808593600254610a7e565b600255338352828252838320818154019055835190815282600080516020610fcf833981519152833393a360ff60055460c81c166103bd57505051f35b338252526103d2818320546006541015610dbd565b51f35b835162461bcd60e51b8152908101839052601f60248201527f45524332303a206d696e7420746f20746865207a65726f2061646472657373006044820152606490fd5b835162461bcd60e51b815290810183905260186024820152772737ba103430bb329036b4b73a103832b936b4b9b9b4b7b760411b6044820152606490fd5b50919034610558578160031936011261055857805190828454600181811c9080831692831561054e575b602093848410811461053b5783885290811561051f57506001146104e7575b505050829003601f01601f19168201926001600160401b038411838510176104d457508291826104d09252826109cf565b0390f35b634e487b7160e01b815260418552602490fd5b919250868652828620918387935b83851061050b575050505083010138808061049f565b8054888601830152930192849082016104f5565b60ff1916878501525050151560051b840101905038808061049f565b634e487b7160e01b895260228a52602489fd5b91607f1691610480565b5080fd5b50503461055857816003193601126105585760055490516001600160a01b039091168152602090f35b50503461055857816003193601126105585761059f610a26565b6005546105b160ff8260c01c16610e04565b6105b9610be9565b60ff60a01b1916600160a01b1760055580513381527f62e78cea01bee320cd4e420270b5ea74000d11b0c9f74754ebdbfc544b05a25890602090a151f35b50346101b757816003193601126101b757356001600160a01b03811681036101b7576103d2906024359061063260ff60055460b01c16610ba2565b61063a610be9565b610645823383610d25565b610c30565b505034610558578160031936011261055857610664610a26565b600580546001600160a01b0319811690915590519082906001600160a01b0316600080516020610faf8339815191528284a3f35b50346101b75760203660031901126101b757356001600160a01b038116908190036101b7578282916020945280845220549051908152f35b50503461055857816003193601126105585760209060ff60055460a01c1690519015158152f35b50346101b75760203660031901126101b7576103d29061071e60ff60055460b01c16610ba2565b610726610be9565b3533610c30565b50346101b757826003193601126101b757610746610a26565b6005549061075960ff8360c01c16610e04565b60ff8260a01c161561079e575060ff60a01b191660055580513381527f5db9ee0a495bf2e6ff9c91a7834c1ba4fdd244a5e8aa4e537bd38aeae4b073aa90602090a151f35b606490602084519162461bcd60e51b8352820152601460248201527314185d5cd8589b194e881b9bdd081c185d5cd95960621b6044820152fd5b50346101b757816003193601126101b757356001600160a01b03811680820361020b57906108216020946102da9333825260018752858220908252865284602435912054610a7e565b9033610aa0565b50503461055857816003193601126105585760209060ff60055460a81c169051908152f35b50346101b75760603660031901126101b7576001600160a01b039035818116810361020b57602435918216918281036101b3579361024d849260209660443591610895610be9565b6108a0833383610d25565b610e4f565b5050346105585781600319360112610558576020906002549051908152f35b50346101b757816003193601126101b75735916001600160a01b038316830361033257506102da6020926024359033610aa0565b84915083346101b757826003193601126101b75782600354600181811c908083169283156109c5575b602093848410811461053b578388529081156109a9575060011461097057505050829003601f01601f19168201926001600160401b038411838510176104d457508291826104d09252826109cf565b91925060038652828620918387935b838510610995575050505083010185808061049f565b80548886018301529301928490820161097f565b60ff1916878501525050151560051b840101905085808061049f565b91607f1691610921565b919091602080825283519081818401526000945b828610610a10575050806040939411610a03575b601f01601f1916010190565b60008382840101526109f7565b85810182015184870160400152948101946109e3565b6005546001600160a01b03163303610a3a57565b606460405162461bcd60e51b815260206004820152602060248201527f4f776e61626c653a2063616c6c6572206973206e6f7420746865206f776e65726044820152fd5b81198111610a8a570190565b634e487b7160e01b600052601160045260246000fd5b6001600160a01b03908116918215610b515716918215610b015760207f8c5be1e5ebec7d5bd14f71427d1e84f3dd0314c0f7b2291e5b200ac8c7c3b925918360005260018252604060002085600052825280604060002055604051908152a3565b60405162461bcd60e51b815260206004820152602260248201527f45524332303a20617070726f766520746f20746865207a65726f206164647265604482015261737360f01b6064820152608490fd5b60405162461bcd60e51b8152602060048201526024808201527f45524332303a20617070726f76652066726f6d20746865207a65726f206164646044820152637265737360e01b6064820152608490fd5b15610ba957565b60405162461bcd60e51b81526020600482015260186024820152772737ba103430bb3290313ab937103832b936b4b9b9b4b7b760411b6044820152606490fd5b60ff60055460a01c16610bf857565b60405162461bcd60e51b815260206004820152601060248201526f14185d5cd8589b194e881c185d5cd95960821b6044820152606490fd5b6001600160a01b03168015610cd657600091818352826020526040832054818110610c865781600080516020610fcf833981519152926020928587528684520360408620558060025403600255604051908152a3565b60405162461bcd60e51b815260206004820152602260248201527f45524332303a206275726e20616d6f756e7420657863656564732062616c616e604482015261636560f01b6064820152608490fd5b60405162461bcd60e51b815260206004820152602160248201527f45524332303a206275726e2066726f6d20746865207a65726f206164647265736044820152607360f81b6064820152608490fd5b9060018060a01b0380831660005260016020526040600020908216600052602052604060002054926000198403610d5d575b50505050565b808410610d7857610d6f930391610aa0565b38808080610d57565b60405162461bcd60e51b815260206004820152601d60248201527f45524332303a20696e73756666696369656e7420616c6c6f77616e63650000006044820152606490fd5b15610dc457565b60405162461bcd60e51b815260206004820152601860248201527745786365656420746f6b656e20706572206164647265737360401b6044820152606490fd5b15610e0b57565b60405162461bcd60e51b815260206004820152601c60248201527b2737ba103430bb32903830bab9b0b13632903832b936b4b9b9b4b7b760211b6044820152606490fd5b6001600160a01b03908116918215610f5b5716918215610f0a57600082815280602052604081205491808310610eb65760408282600080516020610fcf833981519152958760209652828652038282205586815280845220818154019055604051908152a3565b60405162461bcd60e51b815260206004820152602660248201527f45524332303a207472616e7366657220616d6f756e7420657863656564732062604482015265616c616e636560d01b6064820152608490fd5b60405162461bcd60e51b815260206004820152602360248201527f45524332303a207472616e7366657220746f20746865207a65726f206164647260448201526265737360e81b6064820152608490fd5b60405162461bcd60e51b815260206004820152602560248201527f45524332303a207472616e736665722066726f6d20746865207a65726f206164604482015264647265737360d81b6064820152608490fdfe8be0079c531659141344cd1fd0a4f28419497f9722a3daafe3b4186f6b6457e0ddf252ad1be2c89b69c2b068fc378daa952ba7f163c4a11628f55a4df523b3efa2646970667358221220b38040e16e6f00738a8c4320473593ca16ccc9d3118dc3aa9a2abc54a2b09ba164736f6c634300080f0033",
  "linkReferences": {},
  "deployedLinkReferences": {}
}